00REMESSA1 COBRANCA       00000000000000008911Condominio BLABLA             237237BRADESCO    200521        MX0000000                                                                                                                                                                                                                                                                                     000001
1                                                             00000000                                     000000000                              000000000000000000000000000  000000000000000000000000000000000000000000000000000000000000000000000000000000000000000000000000000000000000000000000   000000000              0000000000                                                                  000000
1                                                             00000000                                     000000000                              000000000000000000000000000  000000000000000000000000000000000000000000000000000000000000000000000000000000000000000000000000000000000000000000000   000000000              0000000000                                                                  000000
1                                                             00000000                                     000000000                              000000000000000000000000000  000000000000000000000000000000000000000000000000000000000000000000000000000000000000000000000000000000000000000000000   000000000              0000000000                                                                  000000
1                                                             00000000                                     000000000                              000000000000000000000000000  000000000000000000000000000000000000000000000000000000000000000000000000000000000000000000000000000000000000000000000   000000000              0000000000                                                                  000000
1                                                             00000000                                     000000000                              000000000000000000000000000  000000000000000000000000000000000000000000000000000000000000000000000000000000000000000000000000000000000000000000000   000000000              0000000000                                                                  000000
9                                                                                                                                                                                                                                                                                                                                                                                                         000000
